:100000000C942A000C9434000C9434000C943400AA
:100010000C9434000C9434000C9434000C94340090
:100020000C9434000C9434000C9434000C94340080
:100030000C9434000C9434000C9434000C94340070
:100040000C9434000C9434000C9434000C94340060
:100050000C94340011241FBECFE5D8E0DEBFCDBF25
:100060000E947A000C9493000C94000085E083BFFA
:1000700082EB82BF08B600FEFDCF13BE88B7816059
:1000800088BF0895413069F4E82FF0E0218181E0D4
:1000900090E002C0880F991F6A95E2F7822B818356
:1000A0000895E82FF0E0218181E090E002C0880F00
:1000B000991F6A95E2F78095822381830895E82F3E
:1000C000F0E0828121E030E002C0220F331F6A9508
:1000D000E2F72095282322830895E82FF0E082811B
:1000E00021E030E002C0220F331F6A95E2F7282793
:1000F0002283089541E064E083E30E94420064E0CB
:1001000083E30E945F00C0E0D0E003C00E9436009D
:100110002196C436D105D4F364E083E30E946D00D8
:0A012000C0E0D0E0F6CFF894FFCF66
:00000001FF
